:020000040800F2
:100000004012002001010008D51800081D18000842
:10001000D1180008090D00089F31000800000000F9
:100020000000000000000000000000001D2100088A
:10003000391300080000000007200008F923000819
:100040001B0100081B0100081B0100081B01000820
:100050001B0100081B0100081B0100081B01000810
:100060001B0100081B0100081B0100081B01000800
:100070001B0100081B0100081B0100081B010008F0
:100080001B0100081B0100081B0100081B010008E0
:100090001B0100081B0100081B0100081B010008D0
:1000A0001B0100081B0100081B0100081B010008C0
:1000B0001B0100081B0100081B0100081B010008B0
:1000C0001B0100081B0100081B0100081B010008A0
:1000D0001B010008852E0008252F00081B010008C1
:1000E0001B0100081B0100081B010008DFF80CD0F1
:1000F00000F054FC00480047BD3A000840120020C0
:100100000648804706480047FEE7FEE7FEE7FEE7B1
:10011000FEE7FEE7FEE7FEE7FEE7FEE70124000854
:10012000ED000008D2B201E000F8012B491EFBD21D
:1001300070470022F6E710B513460A4604461946F2
:10014000FFF7F0FF204610BD30B505462A460B46A6
:1001500012F8010B13F8014B08B1A042F8D01CB102
:10016000002802D06D1CF1E7284630BD10B50446CA
:1001700004E00B7800F8013B03B1491C521EF8D291
:10018000204610BD421C10F8011B0029FBD1801A2B
:10019000704710B5002200E0521C835C8C5CA342C7
:1001A00001D1002BF8D1D8B2E1B2401A10BD0346FC
:1001B00011F8012B00F8012B002AF9D118467047DD
:1001C0000FB400B58DB010A909900B9000914FF0BD
:1001D000FF300A9000200C900548069005480790D3
:1001E0006A4609A80F9900F0FFFA0DB05DF814FBFC
:1001F00005080008230800082DE9FF5FD2E901A7E0
:100200004FF00008916999461446DDF838B046462B
:1002100001988847054659EA0B0005D009E0A16915
:10022000761C019888470546216A28468847002899
:10023000F5D1681C03D05FEACA7005D015E04FF015
:10024000FF3004B0BDE8F09F2068011D2160D0F8A8
:1002500000800AE05FEACA7001D108F8015BA16979
:10026000761C7F1E019888470546002F1ADD681C02
:1002700018D0B9F1000F0DD0E81705EBD06042118E
:1002800020F01F0059F822102A1A01209040014244
:10029000E0D107E0BBF1000FDCD1216A2846884796
:1002A0000028D7D0E16901988847BBF1000F07D13A
:1002B000002E05DD5FEACA7002D1002188F8001027
:1002C000A068B84203DDBBF1000F03D017B16FF097
:1002D0000100B6E73046B4E730B480EA010202F02C
:1002E000004530F0004221F0004013D090B1C30D22
:1002F000D40DC2F31601C0F31600E41A41F4000154
:1003000040F400027D34914201D3641C00E04900B6
:10031000002C02DA30BC002070474FF400000023AC
:10032000914201D3891A034340084FEA4101F7D1B2
:1003300051B1914202D14FF0004105E002D24FF09D
:10034000010101E06FF0010103EBC450284430BC0F
:1003500000F078BA2DE9FE4F804681EA0300C00F15
:100360000C46009021F0004123F00045B8EB02005C
:10037000A94105D24046214690461C460B460246FE
:1003800023F00040104347D0270DC7F30A00C3F302
:100390000A510290401A019040286BDAC3F313000F
:1003A00040F4801B0098924620B10023D2EB030A50
:1003B00063EB0B0B01985946C0F14002504600F028
:1003C000DCF906460D4650465946019A00F0F4F90C
:1003D00010EB08006141002487EA115284EAE773B8
:1003E0001A4340D0009A62B3019A012A4FEA075299
:1003F00015DC001B61EB02014FF0004202EA0752DC
:10040000CDE90042001C41F5801132462B4600F038
:100410005FFA03B0BDE8F08F40462146F9E7001BC4
:1004200061EB0201001C41F5801300185B412018AC
:10043000A2F5001747EB030140EAD570B6196D41EC
:1004400011E06D084FEA360645EAC0754FEA0752DB
:10045000001B61EB0201001C41F5801149084FEAC5
:1004600030000019514132462B4603B0BDE8F04F31
:1004700000F01FBA0098012240000023D0EB0202D6
:1004800063EBE073009821464FEAE074B8EB00009C
:1004900061EB0401E9E783F000435BE781F0004191
:1004A00058E72DE9FE4F81EA030404F0004421F0EF
:1004B000004100944FF0000B23F0004350EA010488
:1004C0005ED052EA03045BD0C3F30A54C1F30A5569
:1004D0002C44A4F2F3340194A0FB0254C1F31301A1
:1004E00041F48011C3F3130343F4801301FB02446E
:1004F00000FB034E840A970A44EA815447EA835773
:10050000A4FB076802958D0A05FB07854FEA932C2B
:1005100004FB0C542705029D4FEA065847EA16379C
:10052000B5EB08056EEB070C870E920E47EA8117B4
:1005300042EA8312A7FB0201B6EB0B0164EB000455
:100540002B0D43EA0C335E1844EB1C50DA4651463F
:10055000E7FB0201C5F313044FEA0B3343EA1453DC
:100560004FEA0432019C43EA0603A4F10C0402940E
:10057000009CCDE900B400F0ABF903B0BDE8F08F0A
:1005800000200146F9E72DE9F04D81EA030404F06B
:10059000004B21F0004514464FF0000A23F00041C3
:1005A00050EA050220D054EA01021DD0C5F30A57D3
:1005B0000246C5F31303C1F31300C1F30A5640F416
:1005C000801543F48013A7EB0608101BD64608F2EB
:1005D000FD3873EB050002D308F1010801E0921821
:1005E0005B41B8F1000F03DA00200146BDE8F08D51
:1005F00000204FF48011064684460EE0171B73EB73
:10060000050705D3121B63EB050306434CEA010CF7
:1006100049084FEA300092185B4150EA0107EDD1DA
:1006200052EA030012D082EA040083EA050108437B
:1006300005D0101BAB4106D20122002306E00022A8
:100640004FF0004302E06FF0010253101AEB060076
:100650004CEB085110EB0A0041EB0B01BDE8F04DEB
:1006600000F027B996230022114600F0F4B820F0DC
:100670000040C10DC0F3160040F400007F2901DAEC
:1006800000207047962903DCC1F19601C8407047ED
:1006900096398840704700F0004230F000400AD0A0
:1006A000C10D01F56071C0F3160042EA0151C208A4
:1006B00040071143704700200146704730B5041EC3
:1006C00071F1000404DB4FF00044404264EB01018F
:1006D000141E73F1000405DB1C464FF00043524228
:1006E00063EB0403994208BF904230BD30B50B461E
:1006F000014600202022012409E021FA02F59D4252
:1007000005D303FA02F5491B04FA02F52844151E25
:10071000A2F10102F1DC30BD2DE9F05F05460020B9
:1007200092469B4688460646814640241BE0284662
:1007300041464746224600F02FF853465A46C01A13
:10074000914110D311461846224600F016F82D1A92
:1007500067EB01084F4622460120002100F00DF80A
:1007600017EB00094E41201EA4F10104DFDC4846CE
:1007700031462A464346BDE8F09F202A04DB203A52
:1007800000FA02F1002070479140C2F1200320FAE4
:1007900003F3194390407047202A04DB203A21FAE2
:1007A00002F00021704721FA02F3D040C2F120028A
:1007B0009140084319467047202A06DBCB17203AA0
:1007C00041FA02F043EAE07306E041FA02F3D04056
:1007D000C2F1200291400843194670470268114453
:1007E0001378016018467047D1600449516104498B
:1007F000116200211161114600F0F0B8DD07000818
:10080000C9090008426842B1016811F8013B23B1EF
:10081000521EC0E90012184670470121C160881EAF
:10082000704742685AB1C368016843B983688B4214
:1008300005D0491E521CC0E90012002070474FF03D
:10084000FF3070470029A8BF7047401C490008BF0F
:1008500020F00100704710B4B0FA80FC00FA0CF0F0
:1008600050EA010404BF10BC704749B1CCF1200428
:1008700021FA04F411FA0CF118BF012121430843B5
:10088000A3EB0C01CB1D4FEA00614FEA102042BFE1
:10089000002010BC704700EBC35010440029A4BFD7
:1008A00010BC7047401C490008BF20F0010010BC7C
:1008B000704710B5141E73F1000408DA401C41F1B2
:1008C000000192185B411A4301D120F0010010BDD4
:1008D0002DE9F04D92469B4611B1B1FA81F202E04A
:1008E000B0FA80F220329046FFF747FF04460F46E9
:1008F00040EA0A0041EA0B0153465A46084313D026
:10090000114653EA010019D0C8F140025046FFF7E2
:1009100043FF05460E46504659464246FFF72DFF17
:10092000084305D0012004E020463946BDE8F08D9B
:100930000020054346EAE0762C4337430A986305D6
:10094000E40AA0EB08000022FD0A44EA47540A30FA
:1009500002D500200146E9E7010510196941DDE9EA
:10096000084500196941BDE8F04DA2E7C1F30A52FC
:10097000C1F3130140F2FF3341F480119A4202DACD
:1009800000200146704740F233439A42A2F23342BC
:1009900002DC5242FFF700BFFFF7EFBE064C074DE7
:1009A00006E0E06840F0010394E80700984710343F
:1009B000AC42F6D3FFF79EFB50510008705100087F
:1009C000004870478850000810B50446FFF7F8FF4C
:1009D0000068005D00F0010010BD00002DE9F34F3C
:1009E0008BB04FF0000801F10C000C464FF0010BEA
:1009F00046460DF1080A019062690121019890476D
:100A0000051E2DD0252D2CD0216A8847C0B16269E2
:100A1000012101989047216A88470028F7D1411E9B
:100A200062690198904700E0761CA1690B9888479D
:100A3000216A88470028F7D1E1690B988847DBE7EE
:100A4000A1690B9888470746A84201D1761CD3E7D5
:100A5000E1690B9888477F1C02D1B8F1000F6FD075
:100A600046E1002762693D463946019890472A28A9
:100A700004D162690121019890470125DFF8849231
:100A80006269012101989047A0F130010A290AD238
:100A90004F45E5DC07EB870100EB4107303FDFD432
:100AA00045F01005ECE7E90601D46FF000476C282B
:100AB0000AD04C2814D0682815D06A280DD0742884
:100AC0001CD07A281AD01DE0626901210198904754
:100AD0006C2802D045F0040514E045F002050DE055
:100AE00045F020050AE062690121019890476828D5
:100AF00002D045F0080505E045F400656269012172
:100B000001989047C4E9015765283DD019DC582861
:100B10007AD00CDC452837D004DC252826D04128A3
:100B200031D131E046282FD047282CD12CE05B284A
:100B300077D0612828D063287CD0642823D15AE05C
:100B4000D0E06F2848D008DC66281DD067281BD06D
:100B5000692821D06E2816D127E0702845D0732847
:100B600068D0752847D078280DD14DE0A1690B9841
:100B70008847054625283FF469AFE1690B98884707
:100B80006D1C3FF46AAFB3E023466A466FF0010084
:100B90000B99AFF300809EE045F040006060A8072D
:100BA00023464FF0000236D43EE0E8077FF447AF1B
:100BB0002068011D21600068290501D506701BE72A
:100BC000290701D5068017E7A90703D5F117C0E962
:100BD000006111E706600FE745F040006060A8077C
:100BE00023464FF0080216D41EE040F60E0125EA17
:100BF0000100606016E045F040006060A8072346F1
:100C00004FF00A0207D40FE045F040006060A807EB
:100C100008D5234610226FF001000B99AFF3008036
:100C200059E007E0234610226FF001000B99AFF363
:100C3000008050E04FF000094F464B46632802D039
:100C40005B2806D040E0E80601D40120A06001271F
:100C50003AE062690121019890475E2805D14FF082
:100C600001096269494601989047216939B9002113
:100C70000A46534643F82120491C0829FADBB0B341
:100C8000216969B9C11700EBD16253110AEB8301E5
:100C900022F01F02821A01200B68904003430B6070
:100CA00062690121019890475D28E8D1B9F1000FF0
:100CB00009D00020514651F82020D24341F820208D
:100CC000401C0828F7DB02AB224600976FF00100BA
:100CD0000B99FFF791FA00280CDA401C08D1BBF100
:100CE000000F05D04FF0FF300DB0BDE8F08FFFE7EB
:100CF0004046F9E7E90701D108F1010806444FF041
:100D0000000B79E6CCCCCC0C00BFFEE708B5012186
:100D1000042001F089F910208DF803000120ADF8BE
:100D2000000003208DF802006946044800F01EFC14
:100D30000121024800F0F9FC08BD00000008014054
:100D400010B54FF400710548FFF7F3F9002003498F
:100D5000A1F8000281F8020210BD00001404002076
:100D600010B500BF26480068044626480068201ACF
:100D700041F28831884203D223A001F064FA10BD09
:100D80002B480078022803D12AA001F05CFAF6E78C
:100D90002748007801280ADA31A13448FFF7D4F94E
:100DA00028B933A13448FFF7CFF900281AD033A06F
:100DB00001F049FA39A001F046FA43A001F043FAE4
:100DC00047A001F040FA4CA001F03DFA50A000F01D
:100DD000F3F80C48046053A001F035FA5EA001F06E
:100DE00032FA0BE062A001F02EFA6DA001F02BFAAE
:100DF0001E4801F028FA33A001F025FA00BFBEE733
:100E0000E0000020A0000020E8AFB7E7AD89E5BE14
:100E10008535E7A792E5908EE5868DE5B09DE8AF34
:100E200095E8BF9EE68EA52E2E2E0D0A000000002E
:100E300015000020E5B7B4E6B395E4BA91E5B7B282
:100E4000E8BF9EE68EA5EFBC8CE697A0E99C80E902
:100E5000878DE5A48DE8BF9EE68EA50D0A000000F3
:100E6000E5B7B2E8BF9EE68EA5000000480000206E
:100E70003137322E31363800160000203D3D3D20FE
:100E8000E5BC80E5A78BE8BF9EE68EA5E5B7B4E696
:100E9000B395E4BA91203D3D3D0D0A00E5AF86E9EA
:100EA00092A53A2035316437386265613932333979
:100EB0003437656262656163653030373564393671
:100EC000636332310D0A0000E4B88AE4BCA0E4B8E0
:100ED000BBE9A2983A2074616E67310D0A000000E8
:100EE000E68EA7E588B6E4B8BBE9A2983A2074611B
:100EF0006E67320D0A000000E58F91E98081E8BF3E
:100F00009EE68EA5E68C87E4BBA42E2E2E0D0A004D
:100F1000434D443A434F4E4E45435445445F54433A
:100F200050000000E5B7B4E6B395E4BA91E8BF9E7F
:100F3000E68EA5E68C87E4BBA4E5B7B2E58F91E920
:100F40008081EFBC8CE7AD89E5BE85E5938DE5BA80
:100F5000942E2E2E0D0A00003D3D3D3D3D3D3D3D74
:100F60003D3D3D3D3D3D3D3D3D3D3D0D0A000000CB
:100F7000E99499E8AFAF3A2057694669E69CAAE838
:100F8000BF9EE68EA5EFBC8CE697A0E6B395E8BFC2
:100F90009EE68EA5E5B7B4E6B395E4BA910D0A00D6
:100FA000E5BD93E5898DE8BF9EE68EA5E78AB6E6A6
:100FB00080813A200000000010B5ADF5047D0446A4
:100FC00001202E490870410204A8FFF7B2F84FF43F
:100FD000007104A8FFF7ADF829A12046FFF7D9F862
:100FE000002816D101202B490870410204A8FFF700
:100FF000A0F829A02AA12CA22DA3CDE900210290BE
:101000001FA234A104A802F0D7F804A802F0C9F87E
:1010100031E034A12046FFF7BCF8002816D10220A9
:101020001C490870010204A8FFF783F832A035A11B
:101030003DA23FA3CDE9002102902AA225A104A848
:1010400002F0BAF804A802F0ACF814E03BA1204684
:10105000FFF79FF878B903200E4908704FF400712C
:1010600004A8FFF766F835A21DA104A802F0A4F8B1
:1010700004A802F096F80DF5047D10BD15000020BF
:10108000434D443A434F4E4E45435445445F5443C9
:1010900050000000C4000020383334340000000049
:1010A00074616E673200000074616E673100000089
:1010B00035316437386265613932333934376562C6
:1010C0006265616365303037356439366363323168
:1010D0000000000025732C25732C25732C25732C00
:1010E00025737D00434D443A434F4E4E454354458E
:1010F000445F4D5154540000636E2D7368616E67F8
:101100006861690063663030656261393163393422
:10111000333764326634653835343165396237398E
:1011200037656134000000006669726500000000E8
:101130006B317236636C664C36553300434D443A1E
:10114000434F4E4E45435445445F4854545000006D
:1011500010B50024002000F04BF805E0601CC4B27C
:101160000120002100F02CF94FF480510F4800F0CD
:10117000D1FA08B1642CF1DB642C01DB012010BD35
:10118000002405E0601CC4B20120002100F018F921
:101190004FF48051054800F0BDFA08B9642CF1DB2A
:1011A000642C01DB0120EAE70020E8E7000C0140A5
:1011B00008B50121082000F037FF4FF48050ADF84A
:1011C000000010208DF8030003208DF8020069460E
:1011D000064800F0CBF94FF48051044800F0A5FA1E
:1011E00000F090F8FFF7B4FF08BD0000000C0140CC
:1011F00038B5044654B14FF48050ADF800000320D8
:101200008DF8020010208DF8030006E04FF48050A6
:10121000ADF8000004208DF803006946014800F095
:10122000A5F938BD000C014010B5002405E0601C94
:10123000C4B20120002100F0C3F84FF480511248DD
:1012400000F068FA08B1642CF1DB002405E0601CB2
:10125000C4B20120002100F0B3F84FF480510A48D5
:1012600000F058FA08B9642CF1DB2820002100F0C6
:10127000A7F84FF48051044800F04CFA08B101205F
:1012800010BD0020FCE70000000C014070B50024F8
:10129000002506E06006040EFFF7C6FF0443681C45
:1012A000C5B2082DF6DB204670BD7CB505460E465E
:1012B00000F028F8FFF74CFFF8B9002405E0FFF72D
:1012C000E5FF0DF80400601CC4B2052CF7DB9DF8A7
:1012D00000009DF8011008449DF8021008449DF894
:1012E000031008449DF80410884208D19DF80000BE
:1012F00030709DF80200287001E001207CBD0020C4
:10130000FCE7000010B50120FFF772FF4FF4805199
:10131000084800F008FA1420002100F03FF84FF4CC
:101320008051044800F001FA0D20002100F048F837
:1013300010BD0000000C01407047000030B514499A
:10134000B1F1807F01D301201DE021F07F40401EDC
:101350004FF0E022506150170F22002807DA1307E0
:101360001D0E0C4B00F00F04241F1D5503E0130746
:101370001C0E094B1C5400BF00204FF0E02290616E
:10138000072010610020012801D100BFFEE730BD19
:101390004019010018ED00E000E400E010B500BFC6
:1013A000064B1B681A4600BF00BF044B1B689B1A04
:1013B00000241B1A8C41F7D310BD0000E000002070
:1013C00030B547E000BF00BF00BF00BF00BF00BF97
:1013D00000BF00BF00BF00BF00BF00BF00BF00BF15
:1013E00000BF00BF00BF00BF00BF00BF00BF00BF05
:1013F00000BF00BF00BF00BF00BF00BF00BF00BFF5
:1014000000BF00BF00BF00BF00BF00BF00BF00BFE4
:1014100000BF00BF00BF00BF00BF00BF00BF00BFD4
:1014200000BF00BF00BF00BF00BF00BF00BF00BFC4
:1014300000BF00BF00BF00BF00BF00BF00BF00BFB4
:1014400000BF00BF00BF00BF00BF00BF00BF00BFA4
:1014500000BF00BF0A460346401E61F1000100259F
:101460006B406A401343ADD130BD000000B587B07A
:1014700000200690029003900490059001900121B5
:10148000042000F0D1FD0121480400F0BDFD04203E
:10149000ADF8180018208DF81B0003208DF81A00F5
:1014A00006A92D4800F062F80820ADF818000420C5
:1014B0008DF81B0006A9284800F058F84FF4E130D9
:1014C00002900020ADF80C00ADF81000ADF80E0051
:1014D0000C20ADF812000020ADF8140002A91F483E
:1014E00001F0E8FD012240F225511C4801F0BCFD4D
:1014F000012240F22441194801F0B6FD26208DF862
:10150000040001208DF8070000208DF8050001205F
:101510008DF8060001A800F0DFF901210F4801F065
:1015200060FD40F204410E48FEF703FE00200C4926
:1015300081F80202A1F800024FF4FA600021FFF7DF
:101540002DFF08A001F02DFE4FF47A700021FFF767
:1015500025FF07B000BD0000000801400044004026
:101560001404002041540D0A000000002DE9F04150
:10157000024600250026002000230024002791F8C1
:1015800003C00CF00F0591F803C00CF0100CBCF177
:10159000000F03D091F802C04CEA050591F800C095
:1015A000BCF1000F31D0146800202BE04FF0010C8B
:1015B0000CFA00F3B1F800C00CEA03069E4220D1F9
:1015C00083004FF00F0C0CFA03F7BC4305FA03FC41
:1015D0004CEA040491F803C0BCF1280F06D14FF087
:1015E000010C0CFA00FCC2F814C00AE091F803C028
:1015F000BCF1480F05D14FF0010C0CFA00FCC2F809
:1016000010C0401C0828D1D31460B1F800C0BCF150
:10161000FF0F34DD546800202EE000F1080C4FF07D
:10162000010808FA0CF3B1F800C00CEA03069E4268
:1016300021D183004FF00F0C0CFA03F7BC4305FADD
:1016400003FC4CEA040491F803C0BCF1280F05D157
:1016500000F1080C08FA0CF8C2F8148091F803C0E5
:10166000BCF1480F07D100F1080C4FF0010808FA4F
:101670000CF8C2F81080401C0828CED35460BDE896
:10168000F0810000F0B50A46002300240021002567
:1016900000F00046B6F1004F02D11D4EF16901E0A5
:1016A0001B4E7168C0F3034583B200F44016B6F5D3
:1016B000401F08D121F07061154E766826F07066E3
:1016C000134F7E6012E000F48016B6F5801F06D13D
:1016D000032606FA05F4A14341F0706106E0460DC9
:1016E000360103FA06F6B14341F0706122B1460DAE
:1016F000360103FA06F6314300F00046B6F1004F1A
:1017000002D1034EF16101E0014E7160F0BD0000B5
:10171000000001400246002093680B400BB10120FD
:1017200000E00020704741617047016170470AB1D5
:10173000016100E04161704710B500244FF40041A1
:101740000B48FFF7E7FF80B914200021FFF726FEC2
:1017500000BF4FF400410648FFF7DCFF0028F8D037
:1017600014200021FFF71AFE0124204610BD0000BE
:101770000008014010B5002408210B48FFF7CAFFFC
:1017800078B914200021FFF709FE00BF08210648A0
:10179000FFF7C0FF0028F9D014200021FFF7FEFD5D
:1017A0000224204610BD0000000C014010B50024AA
:1017B00010210B48FFF7AEFF78B914200021FFF786
:1017C000EDFD00BF10210648FFF7A4FF0028F9D067
:1017D00014200021FFF7E2FD0324204610BD000085
:1017E000000C014010B5002420210B48FFF792FFA8
:1017F00078B914200021FFF7D1FD00BF2021064851
:10180000FFF788FF0028F9D014200021FFF7C6FD5C
:101810000424204610BD0000000C014000BFFEE77C
:1018200008B501210C2000F0FFFB0121084600F063
:10183000FBFB01211348FFF725FF48208DF803002B
:1018400003208DF802004FF40040ADF80000694617
:101850000D48FFF78BFE0820ADF8000069460B48E5
:10186000FFF784FE1020ADF8000069460748FFF737
:101870007DFE2020ADF8000069460448FFF776FEA3
:1018800008BD00000002300000080140000C0140CB
:1018900010B50D480078012815D1FFF787FF032800
:1018A00011D10A480078401C08490870087800EBFC
:1018B000D0714910A0EB4101012902D102F042FB95
:1018C00001E002F037FB10BDAC000020AD000020AD
:1018D00000BFFEE77047000070B5002100230F2213
:1018E000C47804B3154C246804F4E064C4F5E064DF
:1018F000210AC1F10403CA40447804FA03F1847850
:101900001440214309010E4C0678A155047804F0D7
:101910001F050124AC4005786D11AD0005F1E025EF
:10192000C5F8004109E0047804F01F050124AC402B
:10193000044D0678761145F8264070BD0CED00E0A8
:1019400000E400E080E100E002490143024A116046
:10195000704700000000FA050CED00E02DE9F043AF
:1019600004460D4616461F467F2C01DDBDE8F08378
:101970003F2D00DDFAE7A119802902DDC4F18001C5
:10198000CEB2E919402902DDC5F14001CFB22846A7
:1019900030E0234629E04FEAE07C00EB5C7C4FEA34
:1019A000EC0CDFF85C8008EBCC1C1CF803C0024692
:1019B0004FEAE07800EB58784FEAE808A0EBC80956
:1019C0004FF0010808FA09F82CEA080C01464FEA22
:1019D000E07800EB58784FEAE808DFF8249009EB4C
:1019E000C81808F803C0591CCBB2A1199942D2DC1F
:1019F000411CC8B2E9198142CBDC00BFB6E7000048
:101A0000C40800202DE9FF4F86B0069F079EDDF831
:101A10002080DDF824900020019000904E450FD1E9
:101A2000474502DDBA464746D0463C4605E0F1B29E
:101A3000E0B200F0A3F8601C04B24445F7DD99E081
:101A400047450FD14E4502DDB2464E46D14635469A
:101A500005E0E9B2F8B200F091F8681C05B24D4516
:101A6000F7DD87E0474505DDBA464746D046B24632
:101A70004E46D1464E4507DD704206B2C9F1000020
:101A80000FFA80F901200190A9EB0600A8EB0701ED
:101A9000884207DDBA4637465646C246C846D14652
:101AA00001200090A8EB070000B20590A9EB06000A
:101AB0000FFA80FB4FEA4B0000B203900598ABEBA6
:101AC0000000400000B202900598C0EB4B0000B24D
:101AD00004903C463546019838B1009828B16242DE
:101AE000D1B2E8B200F04AF812E0019828B16A4297
:101AF000D1B2E0B200F042F80AE0009820B1E1B2C1
:101B0000E8B200F03BF803E0E9B2E0B200F036F8EA
:101B10002EE0601C04B20498002805DADDE9031009
:101B2000084400B2049006E0681C05B202990498CB
:101B3000084400B20490019838B1009828B162427C
:101B4000D1B2E8B200F01AF812E0019828B16A4266
:101B5000D1B2E0B200F012F80AE0009820B1E1B290
:101B6000E8B200F00BF803E0E9B2E0B200F006F8EA
:101B70004445CEDB0AB0BDE8F08F000070B50346E7
:101B80007F2B00DD70BD3F2900DDFBE7CC1701EBAB
:101B90005474E4100C4D05EBC414E45C0A46CD17F4
:101BA00001EB5575ED10A1EBC5060125B5402C43A1
:101BB0000846CD1701EB5575ED10034E06EBC51524
:101BC000EC5400BFDEE70000C408002038B5002454
:101BD00006E0002500E06D1CB5F57A7FFBD3641CA0
:101BE000B4F57A7FF5D30121082000F01DFA142006
:101BF0008DF8030003208DF802004FF48070ADF8DB
:101C0000000069460848FFF7B1FC4FF40070ADF8DA
:101C1000000069460448FFF7A9FC012000F0B4F970
:101C2000012000F0BDF938BD000C014070B505463B
:101C3000002411E080212141294009B1012100E067
:101C40000021084600F0ACF9012000F09DF90020C9
:101C500000F09AF9601CC4B2082CEBDB012000F004
:101C600093F9002000F090F970BD10B5012000F04C
:101C700097F9012000F088F9002000F091F9002088
:101C800000F082F910BD10B5002000F089F90120A4
:101C900000F07AF9012000F083F910BD10B5FFF7CC
:101CA00095FFAE2000F088F9D52000F085F980205E
:101CB00000F082F9A82000F07FF93F2000F07CF9C5
:101CC000D32000F079F9002000F076F9402000F0F0
:101CD00073F9A12000F070F9C82000F06DF9DA2046
:101CE00000F06AF9122000F067F9812000F064F931
:101CF000CF2000F061F9D92000F05EF9F12000F06A
:101D00005BF9DB2000F058F9302000F055F9A420F1
:101D100000F052F9A62000F04FF98D2000F04CF9A8
:101D2000142000F049F9AF2000F046F910BD10B5BD
:101D30000246012000E050430B1EA1F10101FAD13F
:101D400010BD70B505460C4645F0B00000F034F902
:101D5000102141EA141000F02FF904F00F0000F0F8
:101D60002BF970BDF8B506460F4614461D46082DE2
:101D70000CD1A4F120000E4901EB00101023082221
:101D800039460090304600F017F80FE0062D0DD1CF
:101D9000A4F1200000EB4000064901EB40000823BD
:101DA000062239460090304600F006F8F8BD0000E3
:101DB0005C4100084C4700082DE9F04707460C46F7
:101DC00090469946DDF820A07F2F01DDBDE8F08721
:101DD0003F2C00DDFAE74B46424621463846FFF7E6
:101DE000BDFD002570E0002669E0B8197F2800DD00
:101DF00067E0E11704EB517105EBE101072900DD14
:101E0000E4E72046E21704EB527205EBE202344BA2
:101E100003EBC212BB19D25C2146E31704EB5373E8
:101E2000DB10A4EBC30305FB086C1AF80CC00CFA1A
:101E300003FC42EA0C02E31704EB537305EBE303E4
:101E4000DFF89CC00CEBC31307EB060C03F80C2067
:101E5000E11704EB517105EBE101491C072900DD95
:101E60002BE02046E21704EB527205EBE202521C13
:101E70001B4B03EBC212BB19D25C2146E31704EBE8
:101E80005373DB10A4EBC303C3F1080305FB086C19
:101E90001AF80CC04CFA03FC42EA0C02E31704EBFC
:101EA000537305EBE3035B1CDFF834C00CEBC31387
:101EB00007EB060C03F80C2000BF701CC6B24645A9
:101EC00093DB00BF681CC5B2A9F10100C11700EB8C
:101ED0005171012202EBE101A94284DC00BF75E7E8
:101EE000C40800202DE9F0470646894617461D46DE
:101EF000DDF82080002417E0281B411E0A20FFF790
:101F000016FFB7FBF0F00A21B0FBF1F201FB120063
:101F100000F1300A04FB0861C8B243465246494604
:101F2000FFF720FF601CC4B2AC42E5DBBDE8F087E0
:101F30002DE9F0410646884615461F46002409E073
:101F40002A5D04FB0761C8B23B464146FFF70AFF22
:101F5000601CC4B2285D0028F2D1BDE8F081000009
:101F600010B500240BE000212046FFF7EAFE0549EA
:101F700001EBC410802100F02FF8601CC4B2082CC3
:101F8000F1DB10BDC408002010B5044622464FF412
:101F900080710248FFF7CBFB10BD0000000C014030
:101FA00010B5044622464FF400710248FFF7BFFB0C
:101FB00010BD0000000C014010B50446FFF755FEAF
:101FC0007820FFF733FE0020FFF730FE2046FFF7B2
:101FD0002DFEFFF758FE10BD70B505460E46FFF703
:101FE00044FE7820FFF722FE4020FFF71FFE00246A
:101FF00004E0285DFFF71AFE601CC4B2B442F8DBAF
:10200000FFF741FE70BD704729B1064AD26902430D
:10201000044BDA6104E0034AD2698243014BDA617E
:10202000704700000010024029B1064A926902433D
:10203000044B9A6104E0034A92698243014B9A611E
:10204000704700000010024030B50021002200243B
:1020500000232D4D6D6805F00C0121B1042905D038
:10206000082923D105E0294D056022E0274D0560B0
:102070001FE0254D6D6805F47012234D6D6805F461
:102080008034022505EB92421CB9214D5543056071
:102090000BE01D4D6D6805F400351DB11C4D554319
:1020A000056002E0194D5543056002E0174D0560DB
:1020B00000BF00BF144D6D6805F0F0010909154D12
:1020C0006B5C0568DD4045600F4D6D6805F4E061AF
:1020D000090A104D6B5C4568DD4085600A4D6D68EE
:1020E00005F46051C90A0B4D6B5C4568DD40C56065
:1020F000054D6D6805F44041890B074D6B5CC56863
:10210000B5FBF3F5056130BD0010024000127A0006
:1021100000093D0000000020100000207047000072
:1021200000B587B001218803FFF77EFF012104205D
:10213000FFF77AFF18208DF81B004FF40070ADF800
:10214000180003208DF81A0006A92148FFF70EFA9F
:1021500048208DF81B004FF48060ADF81800032074
:102160008DF81A0006A91A48FFF700FA4FF4165026
:1021700002900020ADF814000C20ADF812000020F1
:10218000ADF81000ADF80E00ADF80C0002A9114832
:1021900000F090FF012240F225510E4800F064FF4C
:1021A0004FF4A060FFF7D0FB25208DF8040001203C
:1021B0008DF807008DF805008DF8060001A8FFF7DF
:1021C0008BFB0121034800F00CFF07B000BD0000AD
:1021D000000801400038014010B50246012000E02F
:1021E00050430B1EA1F10101FAD110BD10B50446F8
:1021F0002146054800F0CFFF00BF8021024800F0D3
:10220000FCFE0028F9D010BD003801402DE9F04156
:1022100006460C46002512E0601B411E0A20FFF70F
:10222000DBFFB6FBF0F00A21B0FBF1F201FB12007C
:1022300000F130073846FFF7D9FF681CC5B2A54248
:10224000EADBBDE8F08170B50446002504E0605D7E
:10225000FFF7CCFF681CC5B2605D0028F7D170BDE8
:1022600010B500F001F810BD0CB5002001900090F1
:102270003348006840F480303149086000BF30487E
:10228000006800F4003000900198401C0190009814
:1022900018B90198B0F5A06FF1D12948006800F491
:1022A000003010B10120009001E000200090009863
:1022B000012843D12348006840F0100021490860FC
:1022C0000846006820F0030008600846006840F0F7
:1022D000020008601A48406819494860084640688A
:1022E00048600846406840F480604860084640689E
:1022F00020F47C1048600846406840F4E8104860CC
:102300000846006840F08070086000BF0C48006814
:1023100000F000700028F9D00948406820F0030060
:10232000074948600846406840F00200486000BF26
:102330000348406800F00C000828F9D10CBD0000EB
:1023400000100240002002402DE9F04727480078A5
:10235000FEF788F92649274A127841F822002549D4
:102360000978481CC11700EB91618911A0EB81111C
:10237000204A11702823802214210020FFF7EEFA52
:1023800001242EE060064FEA1068601C4006050E2E
:10239000174951F824004FF08041FDF79DFF814619
:1023A000FEF765F9C0F13C00C6B2114A611C52F853
:1023B00021004FF08041FDF78FFF8146FEF757F96E
:1023C000C0F13C00C7B2802D09DA402E07DA402F59
:1023D00005DA3B462A4631464046FFF713FB601CB0
:1023E000C4B2402CCEDBBDE8F08700008E00002098
:1023F000140300209A00002010B500F0A1F810BDD1
:1024000010B51348006840F0010011490860084603
:102410004068104908400E494860084600680E4967
:1024200008400B4908600846006820F480200860D6
:102430000846406820F4FE0048604FF41F008860A2
:10244000FFF70EFF4FF000600449086010BD000068
:10245000001002400000FFF8FFFFF6FE08ED00E06C
:102460002DE9F0413248008808B9BDE8F081002527
:102470005AE0002454E00120A0402E490988084079
:1024800000284BD00120A040294909880840E8B322
:10249000C4EBC400284901EB8000007EA8423DD176
:1024A000C4EBC40001EB8000007C78BB00BF0120BE
:1024B000A0401F49098881431D48018000BF0120B9
:1024C000C4EBC4011C4A02EB810108741B48076875
:1024D000C4EBC40152F82100804718480068C61BAD
:1024E000C4EBC400144901EB8000C068B04204D2C0
:1024F000C4EBC40001EB8000C66010480068C4EB68
:10250000C4010D4A02EB8101886000E006E0002072
:10251000C4EBC40102EB8101087400BF601CC4B2AB
:102520000A2CA8DB681CC5B2042DA2DB00BF9CE707
:10253000E4000020E6000020280D0020E00000203C
:1025400027480068401C28B125480068401C2449E1
:10255000086002E000202249086000203DE00121DF
:102560008140204A12881140A9B3C0EBC0021E4B23
:1025700003EB820292681A4B1B689A4209D8C0EB9F
:10258000C002194B03EB82029268154B1B68991A23
:102590000BE0C0EBC002144B03EB82029268C2F165
:1025A000FF320F4B1B681A44511CC0EBC0020E4B8C
:1025B00003EB820252688A420CD8C0EBC00203EBE4
:1025C0008202127C32B901228240084B1B881A43D6
:1025D000064B1A8000BF411CC8B20A28BFDB7047F7
:1025E000E0000020E6000020280D0020E40000208C
:1025F0002DE9FC4700BFB34800688046B248006838
:10260000A8EB000042F21071884257D3AFA0FFF749
:102610001AFEB6A0FFF717FEB648FFF714FEB6A0E5
:10262000FFF711FEB548FFF70EFEB5A0FFF70BFE52
:10263000B4A0FFF708FEB6480078022803D1B5A081
:10264000FFF701FE0AE0B2480078012803D1B5A0E7
:10265000FFF7F9FD02E0BBA0FFF7F5FDA2A0FFF731
:10266000F2FDBBA0FFF7EFFDBC490868FDF7FFFFD7
:1026700004460221FFF7CAFDB9A0FFF7E4FDB74900
:102680004868FDF7F4FF04460221FFF7BFFDB8A03C
:10269000FFF7D9FDB7A0FFF7D6FD01219C480078D0
:1026A000FFF7B4FD90A0FFF7CEFDB648FFF7CBFDD6
:1026B000B5A0FFF7C8FD8448C0F80080B84890F87E
:1026C000020201287ED1B7A1B548FDF73DFD0028E3
:1026D00079D1BAA1B248FDF737FD0028F8D1C0A1E1
:1026E000AF48FDF731FD0028F2D1C3A1AC48FDF79A
:1026F0002BFD0028ECD1C7A1A948FDF725FD002836
:10270000E6D1CEA1A648FDF71FFD0028E0D1D0A15B
:10271000A348FDF719FD0028DAD1D4A1A048FDF7A0
:1027200013FD0028D4D1D4A19D48FDF70DFD00284C
:10273000CED1DEA19A48FDF707FD0028C8D1E0A15F
:102740009748FDF701FD0028C2D1E3A19448FDF7A9
:10275000FBFC0028BCD1E8A19148FDF7F5FC00285E
:10276000B6D1EBA0FFF76FFD8D48FFF76CFD5EA0C3
:10277000FFF769FDEBA18A48FDF7E6FC8146B9F158
:10278000000F2BD009F1180678A13046FDF7DCFCCC
:10279000074627B9EAA13046FDF7D6FC074627B918
:1027A000E8A13046FDF7D0FC07461FB93046FDF7DB
:1027B000E9FC8719BC1B002C0FDD312C0DDA2246F9
:1027C000314601E0D3E297E24A48FDF7CFFC002012
:1027D00048490855DCA0FFF736FD00BFE1A170486D
:1027E000FDF7B2FC05461DB305F110065FA13046AA
:1027F000FDF7AAFC044624B9D1A13046FDF7A4FC9C
:10280000044624B9CFA13046FDF79EFC04465CB1D6
:10281000A71B132F07DA3A4631463848FDF7A6FCC6
:1028200000203649C85500BFD3A0FFF70CFD00BFFC
:10283000D8A15B48FDF788FC30B1DAA1DF48FDF78D
:10284000B6FCDFA0FFF7FFFCE4A15548FDF77CFCD8
:1028500048B1E7A1E948FDF7AAFC01202C4908701E
:10286000E7A0FFF7F0FCF2A14D48FDF76DFC60B169
:10287000F5A0FFF7E8FC012025490870DCA1DF483E
:10288000FDF795FCDEA0FFF7DEFCF5A14448FDF75F
:102890005BFC70B9F8A14248FDF756FC48B9FBA1B2
:1028A0003F48FDF751FC20B9FCA13D48FDF74CFC29
:1028B00038B102201649087016A1D048FDF777FC00
:1028C000F8E1FAE1E00000209C0000200D0A3D3D07
:1028D0003D20E7B3BBE7BB9FE78AB6E68081E4BF54
:1028E000A1E681AF203D3D3D0D0A000057694669D4
:1028F0003A2000005C000020202800001600002084
:10290000290D0A00E5B7B4E6B395E4BA913A200080
:1029100015000020E4BA91E7ABAFE5B7B2E8BF9E7F
:10292000E68EA50057694669E5B7B2E8BF9EE68E18
:10293000A5EFBC8CE69CAAE8BF9EE68EA5E4BA9102
:10294000E7ABAF00E69CAAE8BF9EE68EA5000000BC
:10295000E6B8A9E5BAA63A2000000000E800002089
:10296000C2B0432020E6B9BFE5BAA63A2000000075
:10297000250D0A00636F6E6E6563745F666C616738
:102980003A200000D45000083D3D3D3D3D3D3D3DD9
:102990003D3D3D3D3D3D3D3D3D3D3D0D0A0D0A006A
:1029A000140400205BE58D95E78987E69CBAE68EE6
:1029B000A5E694B65D204154000000005BE58D95CE
:1029C000E78987E69CBAE68EA5E694B65D20434D7E
:1029D000443A434F4E4E45435445445F54435000A0
:1029E000E69BB4E696B0424146415F50524F445593
:1029F00043545F4944000000E69BB4E696B0424170
:102A000046415F544F5049435F434F4E54524F4CE1
:102A100000000000E5B7B4E6B395E4BA91E8BF9EC4
:102A2000E68EA5E68890E58A9FEFBC8CE8AEA4E828
:102A3000AF81E4BFA1E681AF0000000057494649DD
:102A40005F434F4E4E45435445443A320000000028
:102A5000E68C87E4BBA4EFBC9AE88EB7E58F96E5D9
:102A6000BD93E5898DE697B6E997B4004765745F35
:102A700054696D65000000005BE5B7B4E6B395E40A
:102A8000BA912D3EE58D95E78987E69CBA5D20E5F4
:102A90008E9FE5A78BE695B0E68DAE3A20636D6418
:102AA0003D31267265733D3100000000E7BCBAE598
:102AB000B091E5BF85E8A681E5AD97E6AEB500002B
:102AC0005BE8A7A3E69E90E68890E58A9F5D20E6F6
:102AD0008F90E58F960000005BE58D95E78987E68E
:102AE0009CBAE68EA5E694B65D20434D443A534524
:102AF0004E445F44415441005BE8BDACE58F91E535
:102B000088B0E5B7B4E6B395E4BA915D0000000083
:102B10000D0A45535038323636204F75747075742F
:102B20003A200000436F6E6E656374696E672074AF
:102B30006F2053415645442041503A200000000088
:102B40000D0000000A0000003D3D3E205769466927
:102B5000E5908DE7A7B0E5B7B2E69BB4E696B02165
:102B60000D0A0000535441204950204164647265AD
:102B700073733A20000000003D3D3E204950E59C23
:102B8000B0E59D80E5B7B2E69BB4E696B0210D0AAC
:102B90000000000057694669E6A8A1E5BC8F3A200D
:102BA0005354410053544128E5AEA2E688B7E7AB41
:102BB000AFE6A8A1E5BC8F29000000002A00002094
:102BC0003D3D3E2057694669E6A8A1E5BC8FE5B7C3
:102BD000B2E69BB4E696B0210D0A0000574946497B
:102BE0005F434F4E4E45435445443A310000000088
:102BF000E5B7B2E8BF9EE68EA500000048000020C1
:102C00003D3D3E20E8BF9EE68EA5E78AB6E6808180
:102C1000E5B7B2E69BB4E696B0212028636F6E6EEE
:102C20006563745F666C61673D31290D0A000000C1
:102C30004175746F436F6E6E6563743A20535543EC
:102C400043455353000000003D3D3E20576946690F
:102C5000E8BF9EE68EA5E68890E58A9F210D0A00D2
:102C6000E8BF9EE68EA5E5B7B4E6B395E4BA91E673
:102C70008890E58A9F0000004D515454E8BF9EE6BD
:102C80008EA5E68890E58A9F00000000544350E836
:102C9000BF9EE68EA5E68890E58A9F00E5B7B4E67C
:102CA000B395E4BA91E8BF9EE68EA5E68890E58AE2
:102CB0009F0000002FA0FFF7C6FA36A13948FDF7A4
:102CC00043FA48B938A13748FDF73EFA20B939A18F
:102CD0003448FDF739FA10B13BA0FFF7B4FAAFF270
:102CE00000313048FDF730FA10B13EA0FFF7ABFAE3
:102CF00045A0FFF7A8FA38E0AFF204212948FDF714
:102D000023FAE0B142A0FFF79EFA48A12548FDF75B
:102D10001BFA044674B147A0FFF795FA6A4646A12C
:102D2000A01DFDF74DFA6846FFF78DFA43A0FFF7A7
:102D30008AFA00BFAFF25040FFF785FA15E0AFF214
:102D4000A4011848FDF700FA28B9AFF21031154870
:102D5000FDF7FAF930B102203A4908703AA0FFF7BE
:102D600072FA02E046A0FFF76EFAFDF7E9FFBDE850
:102D7000FC8700003D3D3E20E5B7B4E6B395E4BADC
:102D800091E8BF9EE68EA5E68890E58A9F210D0A10
:102D900000000000E8AEA2E99885E68890E58A9FE9
:102DA00000000000140400205375627363726962AE
:102DB00065000000E4B8BBE9A298E8AEA2E99885F6
:102DC000E68890E58A9F00003D3D3E20E4B8BBE9DF
:102DD000A298E8AEA2E99885E68890E58A9F210D41
:102DE0000A0000003D3D3E20E5B7B4E6B395E4BAE5
:102DF00091E58F82E695B0E9858DE7BDAEE4B8AD8B
:102E00002E2E2E0D0A0000002D2D2D0D0A00000083
:102E1000F09F93A420E695B0E68DAEE4B88AE4BCBA
:102E2000A0E68890E58A9F200000000054656D7040
:102E3000223A000028543A0025357300C2B04329D5
:102E40000000000015000020F09F8E8920E6A3807E
:102E5000E6B58BE588B0E5B7B4E6B395E4BA91E89A
:102E6000BF9EE68EA5E68890E58A9F212028636FA5
:102E70006E6E6563745F666C61673D32290D0A0092
:102E80002E00000010B540F22551214800F0C2F894
:102E900001283CD11E4800F079F9C4B21D480078E1
:102EA00058B9402C2DD11C48007850BB012019493D
:102EB000087000201949087023E01648007801289E
:102EC0000FD10D2C03D102201249087019E01448CB
:102ED00012490978445411480078401C0F49087081
:102EE0000FE00C48007802280BD10A2C09D10020F1
:102EF000084908700A49094A12788854012006498D
:102F0000087040F22551024800F05CF800BF10BD87
:102F100000380140DD000020DC000020DE00002041
:102F2000C40C002010B540F225511C4800F072F886
:102F3000D0B11A4800F02AF9C4B21948B0F800021A
:102F4000B0F5FF7F0ADC1648B0F80012B0F80002B6
:102F5000401C134AA2F800021046445440F2255186
:102F60000E4800F02FF800BF40F224410B4800F05B
:102F700051F888B1094800F009F900200849B1F872
:102F80000012074A50540120114681F8020240F213
:102F90002441024800F016F810BD00000044004033
:102FA0001404002010B5044600BF4021044800F07E
:102FB00024F80028F9D02146014800F0ECF810BDB3
:102FC0000044004010B50022002340F66A14A142DC
:102FD00000D100BF0A1201249440A3B2DC43048054
:102FE00010BD21B1828942F40052828104E08289BD
:102FF0004DF6FF731A408281704702460020B1F5FA
:10300000007F00D100BF13880B400BB1012000E00E
:103010000020704770B502460024002300250020E0
:1030200040F66A16B14200D100BFC1F3421501F06B
:103030001F03012606FA03F3012D02D196893340BE
:1030400006E0022D02D1168A334001E0968A334011
:103050000C12012606FA04F41688344013B10CB1A0
:10306000012000E0002070BDF0B5034600240026DA
:103070000025002040F66A17B94200D100BF18466B
:10308000C1F3421401F01F06012707FA06F5012CCF
:1030900001D10C3004E0022C01D1103000E01430DA
:1030A0001AB107682F43076002E00768AF43076063
:1030B000F0BD00002DE9F04786B005460E4600241D
:1030C000A24600BFA1460027B08900B100BF2F462D
:1030D0002C8A4CF6FF700440F08804432C82AC89A3
:1030E0004EF6F3100440B0883189084371890843D3
:1030F0000443AC81AC8A4FF6FF400440B0890443DE
:10310000AC8201A8FEF7A0FF1F48874202D1DDF87C
:1031100010A001E0DDF80CA0A88900F4004040B147
:103120000AEBCA0000EB0A1031684900B0FBF1F865
:1031300007E00AEBCA0000EB0A1031688900B0FB17
:10314000F1F86420B8FBF0F004012009642101FBD0
:103150001089A88900F4004040B1322000EBC9007A
:10316000B0FBF1F000F00700044308E0322000EB70
:1031700009106421B0FBF1F000F00F0004432C8132
:1031800006B0BDE8F087000000380140014688889D
:10319000C0F308007047C1F308028280704700BF87
:1031A000FEE710B5044603E014F8010BFFF7FAFE42
:1031B00020780028F8D110BD0FB4084B10B504A931
:1031C00002AA039800F0DEF8044602A9002000F0ED
:1031D00070FC204610BC5DF814FB0000B33A0008F8
:1031E00002E008C8121F08C1002AFAD170477047D0
:1031F000002001E001C1121F002AFBD1704700002E
:103200002DE9FF5F82B00021DDE90430020DDDF819
:1032100040B0034318D044F61050A2F2FF324243AC
:103220001514119801281FD0A5EB0B00401C5FEA74
:10323000000A4FF000064E4FDFF83891B046504676
:1032400015D5CAF1000413E0119801244AA30128FE
:1032500001D16FEA0B010298119AC0E90031C0E96F
:10326000024206B0BDE8F09FCBF10000DFE7044664
:103270000021404A491842EB0450CDE9001012E009
:10328000E00707D032463B4640464946FDF709F97C
:103290008046894632463B4610461946FDF701F9FD
:1032A00006460F466410002CEAD1DDE90401DDE991
:1032B0000023BAF1000F06DAFDF7F3F842464B4659
:1032C000FDF7EFF805E0FDF75EF942464B46FDF7E6
:1032D0005AF904460E460022284BFDF7EFF903D8B1
:1032E0004FF0FF30014607E00022254B20463146D3
:1032F000FDF730F8FDF73AFB102409E0002C0ADB5B
:103300000A220023FDF708FA039B30321A55641E87
:1033100050EA0102F2D1641C039AC4F1110314446F
:10332000119A012A03D0012208430DD10AE0084373
:1033300004D000204FF0110B119072E7A3EB0B05A6
:103340006D1E0DE05B4504DD4FF0000205F1010547
:1033500004E003DA4FF00002A5F10105002AECD0E9
:1033600002981199C0E90231C0E9004579E70000EF
:10337000000014400000F03F300000000000F04367
:103380000000E03F2DE9FF4F95B09B468946064679
:1033900000250FE2252877D100242746F84A01218D
:1033A000059400E0044316F8013F203B01FA03F0C6
:1033B0001042F7D130782A2811D06FF02F033078DF
:1033C000A0F13002092A16D8059A44F0020402EB53
:1033D000820203EB42021044761C0590EFE759F895
:1033E000042B0592002A03DA504244F4005405905D
:1033F00044F00204761C30782E2816D116F8010FFE
:1034000044F004042A280DD06FF02F023078A0F188
:103410003003092B09D807EB870302EB4303C718D6
:10342000761CF3E759F8047B761C30786C280FD0B3
:1034300006DC4C2817D068280DD06A2814D104E087
:10344000742810D07A280FD10DE044F400140AE05B
:1034500044F4801401E044F440147278824202D1B2
:1034600004F58014761C761C307866280BD013DCAB
:10347000582877D009DC002875D04528F6D0462892
:10348000F4D047281AD19DE118E0632835D064288C
:1034900079D0652812D195E1702873D008DC6728AF
:1034A000F1D069286FD06E280DD06F2806D1B5E015
:1034B00073282CD0752875D0782874D05A4617995F
:1034C00090476D1C75E1C4F30250022809D003280F
:1034D0000DD0D9F8001004280DD00D6009F10409B1
:1034E00067E1D9F80010EA17C1E90052F6E7D9F808
:1034F00000100D80F2E70D70F0E719F8041B8DF84D
:10350000001000208DF80100EA46012003E059F880
:1035100004AB4FF0FF3061074FF0000102D40DE023
:1035200008F101018846B9420FDA8045F8DB1AF844
:1035300008100029F4D108E008F101018846814211
:10354000FADB1AF808100029F6D105985B46A0EBC3
:10355000080721463846179A00F094FA284400EBF1
:10356000080507E04DE029E10DE01AF8010B5A4685
:1035700017999047B8F10108F7D25B4621463846C3
:10358000179A13E142E00A220092C4F302524FF06C
:10359000000A022A08D059F804CB032A4FEAEC713A
:1035A0000AD00DE029E02AE009F1070121F0070225
:1035B000F2E802C1914609E00FFA8CFC4FEAEC7187
:1035C000042A03D14FFA8CFC4FEAEC71002907DA88
:1035D0000A460021DCF1000C61EB02012D2202E021
:1035E000220504D52B228DF80420012203E0E207F6
:1035F00001D02022F7E7904659E00A2102E010228C
:103600000DE010214FF0000A00910BE010224FF066
:10361000000A44F004040827009203E008224FF057
:10362000000A0092C4F30252022A05D059F804CBD2
:103630000021032A08D009E009F1070121F007025F
:10364000F2E802C1914605E01FFA8CFC042A01D180
:103650000CF0FF0C4FF00008220728D5702806D088
:10366000009B83F0100353EA0A0305D00EE04022CA
:103670008DF80420012208E05CEA010206D0302225
:103680008DF804208DF8050002229046009B83F0FF
:10369000080353EA0A030AD15CEA010201D1620776
:1036A00005D530228DF804204FF001087F1E5828E0
:1036B00004D034A003900EA802900DE036A0F9E7E4
:1036C00053466046009AFDF727F884460398825CCB
:1036D0000298401E029002705CEA0100F0D102984C
:1036E00006A9081A00F1200A600702D524F48034E4
:1036F00000E00127574502DDA7EB0A0000E00020AB
:1037000000EB0A01009005984144401A0590E0033F
:1037100006D45B462146179A059800F0B3F9054494
:10372000002706E001A85A46C05D179990476D1C16
:103730007F1C4745F6DBE0030CD55B462146179A14
:10374000059800F09FF9054404E030205A46179987
:1037500090476D1C0099481E00900029F5DC08E098
:10376000029802995A460078491C0291179990478D
:103770006D1CBAF10001AAF1010AF1DC65E100005B
:103780000928010030313233343536373839616237
:1037900063646566000000003031323334353637FB
:1037A00038394142434445460000000000F058F9D2
:1037B0000544761C307800287FF4ECAD19B028461B
:1037C000BDE8F08F620700D4062709F1070222F056
:1037D000070CFCE80223E14603F000485FEA080C0E
:1037E00002D00FF2702C0DE05FEA045C02D50FF2FC
:1037F000682C07E05FEAC47C02D00FF2602C01E085
:10380000AFF2700C4FF0FF3823F00043CDF850C0FA
:1038100065280CD006DC452809D046281DD047284D
:103820003DD13DE0662818D067287ED138E00021E0
:10383000112F01DB112000E0781CCDE9000106A961
:103840000EA8FFF7DDFCDDE90F010E9A03910021C0
:10385000009207F1010A04914DE04FF000400097FB
:10386000CDE9011006A90EA8FFF7CAFCDDE90F0299
:1038700003920E9B11990022DDF80CA00093049294
:1038800011B9791C00EB010AB7EB0A0004D4C0F1AE
:10389000FF3007F1010A0490AAEB0700019044E011
:1038A000012F00DA01270021112F01DD112000E096
:1038B0003846CDE9000106A90EA8FFF7A1FCDDE915
:1038C0000F010E9A0391002104910092BA4621073C
:1038D0000CD40399514500DA8A46BAF1010F05DD8F
:1038E000009AAAF10101515C302908D0B84202DAED
:1038F00010F1040F06DA0121CDE9011015E0AAF15B
:103900000101E9E7002805DC049901440491AAEBD0
:10391000000102E0411C514500DD8A460499401A2D
:10392000401C01904FF000400290200704D4019801
:10393000504501DBCDF8048000208DF84F0002983F
:103940000DF14F07B0F1004F25D02B200E900298BB
:103950004FF0020800280CDA404202902D200E9011
:1039600007E00A210298FCF7C1FE3031029007F807
:10397000011DB8F10001A8F10108F2DC029800284D
:10398000EFD1791E0E980870307800F0200040F0DA
:10399000450007F8020D12A8C01B00F10708149893
:1039A000007800B1012000EB0A01019801EBE07101
:1039B00005984144401A401E0590E00306D45B463A
:1039C0002146179A059800F05DF805441498007890
:1039D00018B15A46179990476D1CE00324D55B46F1
:1039E0002146179A059800F04DF805441CE004980C
:1039F000002807DBDDE90301884203DD0098405C15
:103A0000179901E0179930205A469047049805F11C
:103A10000105401C04900198401E019004D12E2005
:103A20005A46179990476D1CBAF10001AAF1010A94
:103A3000DDDC05E017F8010B5A46179990476D1C1D
:103A4000B8F10001A8F10108F4DC5B462146179AA1
:103A50000598ABE62D0000002B00000020000000C0
:103A60002DE9F041044600251E461746880404D47B
:103A700005E039462020B0476D1C641EF9D5284664
:103A8000BDE8F0812DE9F041044600251E46904630
:103A9000C80301D5302700E02027880404D505E0BD
:103AA00041463846B0476D1C641EF9D52846BDE82E
:103AB000F0810A68531C0B601070704708B5FEF760
:103AC0009FFCFDF73BFC00BF7F48006800BFFEF78E
:103AD000E5F8FDF76DFBFDF719F900F011FAFDF7B8
:103AE0009FFEFEF71DFBFDF7C1FC78A0FEF7ABFBC8
:103AF0000AE0082377A200210846FEF719FA4FF4DE
:103B00007A700021FDF74AFCFDF752FB0028F0D146
:103B1000D9E000BF6C480068044670480068201A6D
:103B2000B0F5FA6F39D36E496E48FDF7BEFB6D48AC
:103B30000078FCF797FD6C49086069480078FCF74D
:103B400091FD694948601023802200210846FDF755
:103B500005FF062365A200210846FEF7E9F90623C2
:103B600064A200213620FEF7E3F90620022300902C
:103B70005C48027800212420FEF7B4F906200223D5
:103B800000905748027800215A20FEF7ABF9FEF763
:103B9000DBFBFEF7E5F951480460FDF7EBFD022879
:103BA0001BD156A15748FCF7CFFA28B956A1554862
:103BB000FCF7CAFA00280DD055A0FEF744FB0120FF
:103BC0006049087060A16348FCF7F1FA62A0FEF753
:103BD0003AFB02E06BA0FEF736FBFDF7ADFD0128D6
:103BE00004D174A0FEF72FFBFDF7BAF8FDF7DEFD58
:103BF000032828D17A480078401C79490870084683
:103C00000078032828DB77A0FEF71DFB4D480078DD
:103C1000012809D102204B4908708148FEF713FBA7
:103C200080A0FEF710FB0AE087A0FEF70CFB012145
:103C300044480078FEF7EAFA87A0FEF704FB00206C
:103C40006749087008E066480078002804DD644889
:103C50000078401E62490870FDF7C4FD042826D193
:103C600086A0FEF7F0FA8FA0FEF7EDFA1E4908686D
:103C7000FCF7FDFC05460221FEF7C8FA8DA0FEF711
:103C8000E2FA8EA0FEF7DFFA17494868FCF7EFFC6E
:103C900005460221FEF7BAFA8CA0FEF7D4FA8CA0F2
:103CA000FEF7D1FA00F056F98EA0FEF7CCFAFDF738
:103CB000EFFDFEF79DFC0C48C069401C0A49C86135
:103CC000FEF7CEFB00BF24E7E00000206D6F6465C7
:103CD000000000006572726F72000000A4000020F6
:103CE0008F0000208E000020E800002074656D70B9
:103CF0000000000068756D69000000003137322E49
:103D000031363800160000203139322E3136380075
:103D1000E68C89E994AE32E68C89E4B88B202D20BC
:103D2000E6898BE58AA8E69BB4E696B057694669B2
:103D3000E8BF9EE68EA5E78AB6E680812E2E2E0D80
:103D40000A00000015000020E5B7B2E8BF9EE68E2D
:103D5000A50000004800002057694669E8BF9EE6BC
:103D60008EA5E78AB6E68081E5B7B2E69BB4E69613
:103D7000B0E4B8BAEFBC9AE5B7B2E8BF9EE68EA54C
:103D80000D0A0000E68C89E994AE32E68C89E4B82D
:103D90008B202D20E4BD86E69CAAE6A380E6B58BA9
:103DA000E588B0E69C89E695884950E59CB0E59D9C
:103DB000800D0A00E68C89E994AE31E68C89E4B87E
:103DC0008B202D20E5B09DE8AF95E8BF9EE68EA53F
:103DD000E5B7B4E6B395E4BA912E2E2E0D0A000095
:103DE000A8000020E68C89E994AE33E8BF9EE68CFB
:103DF0008933E6ACA1202D20E6898BE58AA8E8AEC0
:103E0000BEE7BDAEE5B7B4E6B395E4BA91E8BF9EB0
:103E1000E68EA5E78AB6E680812E2E2E0D0A0000DA
:103E20008C500008E78EB0E59CA8E58FAFE4BBA5F9
:103E3000E5B09DE8AF95E4B88AE4BCA0E695B0E6AD
:103E40008DAEE4BA860D0A00E5BD93E5898DE78A5B
:103E5000B6E680813A200000202D20E8AFB7E58546
:103E600088E7A1AEE4BF9D57694669E8BF9EE68E2C
:103E7000A5E6ADA3E5B8B80D0A0000000D0A3D3D6A
:103E80003D20E6898BE58AA8E4B88AE4BCA0E695E3
:103E9000B0E68DAEE6B58BE8AF95203D3D3D0D0A11
:103EA00000000000E5BD93E5898DE6B8A9E5BAA656
:103EB0003A200000C2B0430D0A000000E5BD93E5C2
:103EC000898DE6B9BFE5BAA63A200000250D0A00A3
:103ED000E5BC80E5A78BE4B88AE4BCA02E2E2E0DAD
:103EE0000A0000003D3D3D3D3D3D3D3D3D3D3D3DEC
:103EF0003D3D3D3D3D3D3D3D3D3D3D3D0D0A0000CF
:103F000008B501210420FEF78FF810208DF803007A
:103F10000220ADF8000003208DF802006946044835
:103F2000FDF724FB02210248FDF7FDFB08BD000060
:103F30000008014010B502210148FDF7F4FB10BD57
:103F40000008014010B502210148FDF7EEFB10BD4D
:103F5000000801402DE9F04786B02C48007802287F
:103F600038D101022A48FCF7E4F82A490868FCF72E
:103F700092FB80460022284BFCF7A0FB01D227A031
:103F800000E028A0824623494868FCF784FB0646E7
:103F90000F4620490868FCF77EFB04460D461D4885
:103FA000408D08B121A000E021A022A225A18DE82A
:103FB000F00405901648FFF7FFF81548FFF7F1F8F1
:103FC0002FA0FEF740F91248FEF73DF933A0FEF7A7
:103FD0003AF918E00D480078012806D130A0FEF724
:103FE00032F93BA0FEF72FF902E042A0FEF72BF9D1
:103FF0004CA0FEF728F9012104480078FEF706F9E5
:104000004EA0FEF720F906B0BDE8F08715000020AD
:1040100014010020E800002000003E404869676865
:10402000000000004E6F726D616C00004F4E00008A
:104030004F464600434D443A53454E445F44415435
:104040004100000025732C7B2254656D70223A25B7
:104050002E31662C2248756D69223A252E31662C48
:1040600022537461747573223A222573222C2252D2
:10407000656C6179223A222573222C7D00000000B4
:1040800055706C6F6164696E6720746F2042614681
:104090006120436C6F75643A200000000D0A000037
:1040A000E99499E8AFAF3A2057694669E5B7B2E8B5
:1040B000BF9EE68EA5EFBC8CE4BD86E5B7B4E6B343
:1040C00095E4BA91E69CAAE8BF9EE68EA50D0A008B
:1040D000E8AFB7E58588E68C89E68C89E994AE314E
:1040E000E8BF9EE68EA5E5B7B4E6B395E4BA910DB8
:1040F0000A000000E99499E8AFAF3A205769466991
:10410000E69CAAE8BF9EE68EA5EFBC8CE697A0E6EB
:10411000B395E4B88AE4BCA0E695B0E68DAE0D0A8E
:1041200000000000E5BD93E5898DE8BF9EE68EA501
:10413000E78AB6E680813A20000000002028E99C4A
:1041400080E8A681E78AB6E6808132E6898DE88339
:10415000BDE4B88AE4BCA0290D0A000000000000FC
:10416000000000000000000000000000000000F857
:1041700000000000000000333000000000160E00B8
:10418000160E0000000000000000000040C0784053
:10419000C0784000043F04043F040400007088FC21
:1041A00008300000001820FF211E0000F008F00079
:1041B000E018000000211C031E211E0000F00888EA
:1041C000700000001E212324192721100000001672
:1041D0000E0000000000000000000000000000E0F1
:1041E0001804020000000007182040000002041814
:1041F000E00000000040201807000000404080F070
:10420000804040000202010F01020200000000F0A5
:10421000000000000101011F010101000000000079
:104220000000000000B0700000000000000000006E
:104230000000000000010101010101010000000077
:10424000000000000030300000000000000000000E
:1042500080601804006018060100000000E01008EB
:104260000810E000000F102020100F00001010F8C0
:10427000000000000020203F2020000000700808FF
:10428000088870000030282422213000003008887F
:10429000884830000018202020110E000000C020A7
:1042A00010F8000000070424243F240000F80888C8
:1042B000880808000019212020110E0000E0108855
:1042C00088180000000F112020110E000038080887
:1042D000C83808000000003F000000000070880897
:1042E00008887000001C222121221C0000E0100818
:1042F0000810E0000000312222110F00000000C071
:10430000C00000000000003030000000000000C0CD
:10431000C0000000000080B070000000000080407D
:104320002010080000010204081020004040404016
:104330004040400004040404040404000008102069
:1043400040800000002010080402010000704808AE
:104350000808F0000000003036010000C030C82816
:10436000E810E0000718272423140B000000C038D1
:10437000E0000000203C23020227382008F888884B
:1043800088700000203F202020110E00C030080857
:1043900008083800071820202010080008F808082E
:1043A0000810E000203F202020100F0008F8888827
:1043B000E8081000203F20202320180008F88888F3
:1043C000E8081000203F200003000000C03008086B
:1043D0000838000007182020221E020008F80800F4
:1043E0000008F808203F210101213F20000808F8BB
:1043F000080800000020203F2020000000000808DE
:10440000F8080800C08080807F00000008F888C09D
:1044100028180800203F20012638200008F808004E
:1044200000000000203F20202020300008F8F80085
:10443000F8F80800203F003F003F200008F830C097
:104440000008F808203F200007183F00E010080887
:104450000810E0000F10202020100F0008F80808B6
:104460000808F000203F210101010000E0100808C9
:104470000810E0000F18242438504F0008F88888EE
:1044800088887000203F2000030C302000708808CE
:10449000080838000038202121221C00180808F8DC
:1044A000080818000000203F2000000008F808005D
:1044B0000008F808001F202020201F00087888002E
:1044C00000C83808000007380E010000F80800F89E
:1044D0000008F800033C0700073C03000818688048
:1044E0008068180820302C03032C30200838C800BE
:1044F000C83808000000203F20000000100808080D
:10450000C83808002038262120201800000000FEAE
:10451000020202000000007F40404000000C30C05A
:1045200000000000000000010638C0000002020286
:10453000FE000000004040407F0000000020100806
:10454000040810200000000000000000000000002F
:10455000000000008080808080808080000204084D
:10456000000000000000000000000000000080804B
:10457000808000000019242222223F2008F80080B9
:1045800080000000003F112020110E00000000807C
:1045900080800000000E112020201100000000800B
:1045A0008088F800000E112020103F20000080803D
:1045B00080800000001F222222221300008080F051
:1045C000888888180020203F20200000000080807C
:1045D00080808000006B94949493600008F80080C1
:1045E00080800000203F210000203F20008098981C
:1045F000000000000020203F20200000000000807C
:104600009898000000C08080807F000008F80000BB
:1046100080808000203F24022D302000000808F810
:10462000000000000020203F2020000080808080CB
:1046300080808000203F20003F20003F00808000DD
:104640008080000000203F2100203F20000080806B
:1046500080800000001F202020201F00808000801C
:104660008000000080FFA12020110E0000000080CB
:1046700080808000000E112020A0FF8080808000BC
:104680008080800020203F212000010000008080E9
:10469000808080000033242424241900008080E0DE
:1046A000808000000000001F2020000080800000AB
:1046B00000808000001F202020103F20808080008C
:1046C0000080808000010E3008060100808000809C
:1046D000008080800F300C030C300F0000808000C1
:1046E000808080000020312E0E31200080808000EC
:1046F0000080808080818E7018060100008080809C
:10470000808080000021302C222130000000000039
:10471000807C020200000000003F404000000000DA
:10472000FF00000000000000FF0000000002027C0B
:10473000800000000040403F00000000008040403A
:104740008000008000000000000101000000000067
:1047500000000000002F0000000007000700001408
:104760007F147F1400242A7F2A1200231308646216
:1047700000364955225000000007000000001C22AE
:104780004100000041221C000014083E08140008EB
:10479000083E0808000000A060000008080808089B
:1047A000000060600000002010080402003E514933
:1047B000453E0000427F40000042615149460021D1
:1047C00041454B31001814127F10002745454539EB
:1047D000003C4A4949300001710905030036494946
:1047E000493600064949291E0000363600000000FF
:1047F000563600000008142241000014141414144A
:10480000000041221408000201510906003E4955EA
:10481000592E007C1211127C007F49494936003E16
:1048200041414122007F4141221C007F49494941C9
:10483000007F09090901003E4149497A007F0808C3
:10484000087F0000417F4100002040413F01007F80
:1048500008142241007F40404040007F020C027F4C
:10486000007F0408107F003E4141413E007F09095E
:104870000906003E4151215E007F09192946004684
:10488000494949310001017F0101003F4040403F5B
:10489000001F2040201F003F4038403F00631408A5
:1048A0001463000708700807006151494543000080
:1048B0007F414100000204081020000041417F00B8
:1048C0000004020102040040404040400000010298
:1048D0000400002054545478007F48444438003881
:1048E0004444442000384444487F00385454541809
:1048F00000087E0901020018A4A4A47C007F08041B
:1049000004780000447D4000004080847D00007FEA
:10491000102844000000417F4000007C0418047807
:10492000007C0804047800384444443800FC242403
:1049300024180018242418FC007C080404080048EB
:104940005454542000043F444020003C4040207C0C
:10495000001C2040201C003C4030403C00442810FB
:104960002844001CA0A0A07C004464544C440000D7
:10497000087F41000000007F00000000417F080028
:10498000000804081008E6B8A9001060028C0000B6
:10499000FE9292929292FE00000004047E01407EFC
:1049A00042427E427E42427E4000E5BAA6000000BE
:1049B000FC242424FC252624FC2424240400403048
:1049C0008F80844C55252525554C80808000E585B9
:1049D00089004040424458C0407F40C05048464053
:1049E00040008080402018070000003F40404040C9
:1049F0007800E6B9BF001060028C00FE929292929D
:104A00009292FE00000004047E014448507F404022
:104A10007F5048444000E7A9BA00100C4424140415
:104A200005060404142444140C0000404041414194
:104A3000417F4141414140400000E6B094002010D8
:104A40004C4754545454545454D4040400000000AB
:104A50000000000000000000000F3040F000E8B44B
:104A6000A8000000FE121292929292FF91919191F1
:104A7000100080601F80805F4020100E1010205FAB
:104A80008000E9878F00202020BEAAAAAAAAAAAA8D
:104A9000AABE20202000008080AFAAAAAAFFAAAA4E
:104AA000AAAF80800000E697B60000FC848484FCF6
:104AB000001010101010FF101000003F1010103FD9
:104AC0000000010640807F000000E997B40000F874
:104AD000010600F0121212F2020202FE000000FFB4
:104AE0000000001F1111111F0040807F0000E881AD
:104AF000940002FE9292FE0200101116F0141310A0
:104B00000000101F0808FF048141310D030D3141E1
:104B10008100E7BD910000FE022242827202224221
:104B2000827202FE000000FF100806010E10080647
:104B3000014E807F0000E4B8AD000000F0101010BE
:104B400010FF10101010F000000000000F0404040B
:104B500004FF040404040F000000E99BB6000000F9
:104B6000E0FCFFFF0707070F0F0FFFFF00000030FB
:104B7000FFFFFFF3F0F0E0E0E0E0FFFF0000E4B84B
:104B800080000000000018381C1E0FFFFF0F0000FF
:104B900000000000000000000000FFFFFF00000018
:104BA0000000E4BA8C0000081C1E0E0F07078FDE01
:104BB000FCFC780000000000C0E0F8FCFEEFE7E33A
:104BC000E1E060600000E4B8890000000000030339
:104BD000C7E7E7F7FF3F1E0E0E00007070707060B1
:104BE000E1E3E3E3E3FF7F1F0600E59B9B0000009A
:104BF000E0F8FF1F07000000FEFE1E000000040F8B
:104C00000F0F0C0C0C0C0CFFFFFF0C0C0C0CE4BA7F
:104C1000940000000000FEFFFFC3C3C3C38383836F
:104C2000830000307070717161E1E1E1E1F9FF3FF3
:104C30000700E585AD00000000C0F0FC7EDFC78105
:104C4000808000000000003C3F3F737170E1E1E3B1
:104C5000F3FF3F1F0E00E4B88300000003070707BF
:104C6000070707C7F7FF7F1E000000000000008055
:104C7000E0FC7F1F070100000000E585AB0000009D
:104C80001C1C3E7EFEE7E7E7FF7E3C000000007054
:104C9000787C7EEFE7E3E1E3E77F7E3C1C00E4B94C
:104CA0009D00006078FCFECFC7878707E6FEFE3ECA
:104CB0000C00000000000001C1F3FF7F1F03000093
:104CC0000000E695B00090523410FF10345280700E
:104CD0008F0808F80800829A566322528E0080409E
:104CE000330C33408000E4BD990080804020504860
:104CF00044C344485020408080000040221A0242B1
:104D0000827F0202020A12600000E7839F00807027
:104D100000FF1008FE424242FA424242FE0080601A
:104D200018070810FF50484641424C40FF00E99BDD
:104D3000BE00100C055555D5057F05555555051474
:104D40000C001010108AA96B352525ABE90810104E
:104D50001000E6898B0000002424242424FC222255
:104D6000222322000000020202020242827F02028B
:104D7000020202020200E887AA00000000F8888C04
:104D80008A89888888F800000000000000FF4444F9
:104D90004444444444FF00000000E58AA800404425
:104DA000C4444444401010FF101010F00000103CA8
:104DB000131014B840300E014080403F0000E6A8B8
:104DC000A1001010D0FF9014E4AFA4A4A4AFE40499
:104DD0000000040300FF00894B2A1A0E1A2A4B8890
:104DE0008000E5BC8F00101090909090901010FF04
:104DF000101011161000002060203F10101000034A
:104E00000C102040F80000000000FF0101013109F2
:104E1000090909897101010101FFFF8080808080FB
:104E2000809681808080808080FFE8A180000000E3
:104E3000F80808F80C0B08F80808F80000004040D3
:104E40007F40407F4040407F40407F404000E6B090
:104E5000A7000824236AAA2AAA6A2A2A2AEA02029E
:104E600000001011151515FF15151511100F304004
:104E7000F800E5BF83000000800000E00204180095
:104E8000000040800000100C0300003F4040404004
:104E9000407800010E00E78E87000014A4442434FB
:104EA000AD6624940444A414000008090808090904
:104EB00009FD09090B0808090800E998880000F8AD
:104EC0000122A0A2A222FE22AA3202FE000000FFBE
:104ED0000010130A4B20170C133880FF0000E580E8
:104EE000BC00008060F80704E4A4A4BFA4A4E40408
:104EF0000000010000FF40407F4A4A4A4A4A7F4082
:104F0000400000000000FF01010131090909098981
:104F10007101010101FFFF80808080808096818087
:104F20008080808080FFFF01818181FD8991A1C106
:104F3000FD81818101FFFF808080809F8884828144
:104F40009F80808080FF0000000000060F0FFFFFA1
:104F5000FF0000000000000000000018187EFFFFA6
:104F60001F000000000000000000000101FEFFFF24
:104F700000000000000000000000000000FFFF7FB4
:104F800030000000000000000000000000000000F1
:104F900080E0F8FCFFFF3F0E020000000000000070
:104FA00000000000000000000000000080E0F8FEAB
:104FB000FF7F1F0781F0E0E0C0C0C08080000000DC
:104FC0000000000000000000C0F0F8FEFFBF0F0767
:104FD00001000000010103030707070F0F9FDFFE19
:104FE000FEFCFC3800000000010707070F0F0F1F31
:104FF0001E3E3E3C7C7C78F8F0F8FCFE7F1F0F07DD
:10500000030100000000004040404040404040405C
:10501000414141414140404040404040404040408B
:1050200040404040404040050202020202020202AB
:105030000202020202020220202020202020202042
:1050400020020202020202029090909090901010B2
:105050001010101010101010101010101010101050
:1050600010100202020202028888888888880808D4
:1050700008080808080808080808080808080808B0
:10508000080802020202400007500008E5B7B4E633
:10509000B395E4BA91E8BF9EE68EA5E78AB6E680AE
:1050A00081E5B7B2E6898BE58AA8E8AEBEE7BDAE7A
:1050B000E4B8BAEFBC9AE5B7B2E8BF9EE68EA52089
:1050C00028636F6E6E6563745F666C61673D32293D
:1050D0000D0A0000E68C89E994AE313DE8BF9EE6FA
:1050E0008EA5E5B7B4E6B395E4BA912020E68C89A5
:1050F000E994AE323DE69BB4E696B057694669E75F
:105100008AB6E680812020E68C89E994AE33E8BF38
:105110009EE68C8933E6ACA13DE5BCBAE588B6E8ED
:10512000AEBEE7BDAEE4BA91E7ABAFE8BF9EE68E98
:10513000A52020E68C89E994AE343DE4B88AE4BC2D
:10514000A0E695B0E68DAE0D0A00000046756E0033
:105150007051000800000020E8000000E031000865
:1051600058520008E800002058110000F0310008F3
:1051700000000000010203040102030406070809FD
:10518000020406083700E69CAAE88EB7E58F960071
:1051900000000000000000000000E69CAAE79FA5B8
:1051A00000000000000000000000000000000000FF
:1051B0000000000000000000E69CAAE8BF9EE68E0A
:1051C000A50000000000000000000000E69CAAE826
:1051D000BF9EE68EA5000000000000000000000059
:1051E00000000000000000000000000000000000BF
:1051F00000000000000000000000000000000000AF
:10520000000000000000000000000000000000009E
:10521000000000000000000000000000000001503D
:10522000965096000000A8410000D84128000000D8
:105230005000000000000000000000004C51000879
:1052400000000000EC000020000000000000000052
:08525000000000000000000056
:04000005080000ED02
:00000001FF
